:100000000C942A000C9434000C9434000C943400AA
:100010000C9434000C9434000C9434000C94340090
:100020000C9434000C9434000C9434000C9447006D
:100030000C9434000C9434000C9434000C94340070
:100040000C9434000C9434000C9434000C94340060
:100050000C94340011241FBECFE5D4E0DEBFCDBF29
:100060000E9442000C9455000C94000010BC87E6DE
:1000700089B98AB188618AB980B5866880BD579A86
:100080007894089582E081BB0E943600FFCF1F92D2
:100090000F920FB60F9211248F938CB18CB98F9160
:0E00A0000F900FBE0F901F901895F894FFCF91
:00000001FF
